{
  "_format": "hh-sol-artifact-1",
  "contractName": "Election",
  "sourceName": "contracts/Election.sol",
  "abi": [
    {
      "inputs": [],
      "stateMutability": "nonpayable",
      "type": "constructor"
    },
    {
      "anonymous": false,
      "inputs": [
        {
          "indexed": true,
          "internalType": "uint256",
          "name": "id",
          "type": "uint256"
        },
        {
          "indexed": false,
          "internalType": "string",
          "name": "name",
          "type": "string"
        }
      ],
      "name": "CandidateAdded",
      "type": "event"
    },
    {
      "anonymous": false,
      "inputs": [
        {
          "indexed": false,
          "internalType": "enum Election.Phase",
          "name": "newPhase",
          "type": "uint8"
        }
      ],
      "name": "PhaseChanged",
      "type": "event"
    },
    {
      "inputs": [
        {
          "internalType": "string",
          "name": "name",
          "type": "string"
        }
      ],
      "name": "addCandidate",
      "outputs": [],
      "stateMutability": "nonpayable",
      "type": "function"
    },
    {
      "inputs": [],
      "name": "admin",
      "outputs": [
        {
          "internalType": "address",
          "name": "",
          "type": "address"
        }
      ],
      "stateMutability": "view",
      "type": "function"
    },
    {
      "inputs": [],
      "name": "currentPhase",
      "outputs": [
        {
          "internalType": "enum Election.Phase",
          "name": "",
          "type": "uint8"
        }
      ],
      "stateMutability": "view",
      "type": "function"
    },
    {
      "inputs": [
        {
          "internalType": "uint256",
          "name": "id",
          "type": "uint256"
        }
      ],
      "name": "getCandidate",
      "outputs": [
        {
          "internalType": "string",
          "name": "name",
          "type": "string"
        },
        {
          "internalType": "uint256",
          "name": "voteCount",
          "type": "uint256"
        }
      ],
      "stateMutability": "view",
      "type": "function"
    },
    {
      "inputs": [],
      "name": "getCandidateCount",
      "outputs": [
        {
          "internalType": "uint256",
          "name": "",
          "type": "uint256"
        }
      ],
      "stateMutability": "view",
      "type": "function"
    },
    {
      "inputs": [
        {
          "internalType": "uint256",
          "name": "id",
          "type": "uint256"
        }
      ],
      "name": "incrementVote",
      "outputs": [],
      "stateMutability": "nonpayable",
      "type": "function"
    },
    {
      "inputs": [
        {
          "internalType": "enum Election.Phase",
          "name": "newPhase",
          "type": "uint8"
        }
      ],
      "name": "setPhase",
      "outputs": [],
      "stateMutability": "nonpayable",
      "type": "function"
    },
    {
      "inputs": [
        {
          "internalType": "address",
          "name": "_votingContract",
          "type": "address"
        }
      ],
      "name": "setVotingContract",
      "outputs": [],
      "stateMutability": "nonpayable",
      "type": "function"
    },
    {
      "inputs": [],
      "name": "votingContract",
      "outputs": [
        {
          "internalType": "address",
          "name": "",
          "type": "address"
        }
      ],
      "stateMutability": "view",
      "type": "function"
    }
  ],
  "bytecode": "0x608060405234801561001057600080fd5b50336000806101000a81548173ffffffffffffffffffffffffffffffffffffffff021916908373ffffffffffffffffffffffffffffffffffffffff16021790555060008060146101000a81548160ff0219169083600381111561007657610075610080565b5b02179055506100af565b7f4e487b7100000000000000000000000000000000000000000000000000000000600052602160045260246000fd5b61158c806100be6000396000f3fe608060405234801561001057600080fd5b50600436106100935760003560e01c8063462e91ec11610066578063462e91ec14610121578063a069c1ac1461013d578063c03afb5914610159578063c1fc006a14610175578063f851a4401461019357610093565b8063055ad42e1461009857806315ccb26a146100b657806330a56347146100d257806335b8e820146100f0575b600080fd5b6100a06101b1565b6040516100ad91906109e7565b60405180910390f35b6100d060048036038101906100cb9190610a4c565b6101c4565b005b6100da6102d9565b6040516100e79190610a88565b60405180910390f35b61010a60048036038101906101059190610a4c565b6102e6565b604051610118929190610b33565b60405180910390f35b61013b60048036038101906101369190610c98565b610411565b005b61015760048036038101906101529190610d3f565b610608565b005b610173600480360381019061016e9190610d91565b6107b3565b005b61017d610926565b60405161018a9190610dcd565b60405180910390f35b61019b61094c565b6040516101a89190610dcd565b60405180910390f35b600060149054906101000a900460ff1681565b600160009054906101000a900473ffffffffffffffffffffffffffffffffffffffff1673ffffffffffffffffffffffffffffffffffffffff163373ffffffffffffffffffffffffffffffffffffffff1614610254576040517f08c379a000000000000000000000000000000000000000000000000000000000815260040161024b90610e34565b60405180910390fd5b600280549050811061029b576040517f08c379a000000000000000000000000000000000000000000000000000000000815260040161029290610ea0565b60405180910390fd5b600281815481106102af576102ae610ec0565b5b906000526020600020906002020160010160008154809291906102d190610f1e565b919050555050565b6000600280549050905090565b606060006002805490508310610331576040517f08c379a000000000000000000000000000000000000000000000000000000000815260040161032890610ea0565b60405180910390fd5b6002838154811061034557610344610ec0565b5b90600052602060002090600202016000016002848154811061036a57610369610ec0565b5b90600052602060002090600202016001015481805461038890610f95565b80601f01602080910402602001604051908101604052809291908181526020018280546103b490610f95565b80156104015780601f106103d657610100808354040283529160200191610401565b820191906000526020600020905b8154815290600101906020018083116103e457829003601f168201915b5050505050915091509150915091565b60008054906101000a900473ffffffffffffffffffffffffffffffffffffffff1673ffffffffffffffffffffffffffffffffffffffff163373ffffffffffffffffffffffffffffffffffffffff161461049f576040517f08c379a000000000000000000000000000000000000000000000000000000000815260040161049690611012565b60405180910390fd5b600060038111156104b3576104b2610970565b5b600060149054906101000a900460ff1660038111156104d5576104d4610970565b5b14610515576040517f08c379a000000000000000000000000000000000000000000000000000000000815260040161050c9061107e565b60405180910390fd5b6000815111610559576040517f08c379a0000000000000000000000000000000000000000000000000000000008152600401610550906110ea565b60405180910390fd5b600260405180604001604052808381526020016000815250908060018154018082558091505060019003906000526020600020906002020160009091909190915060008201518160000190816105af91906112b6565b5060208201518160010155505060016002805490506105ce9190611388565b7fe83b2a43e7e82d975c8a0a6d2f045153c869e111136a34d1889ab7b598e396a3826040516105fd91906113bc565b60405180910390a250565b60008054906101000a900473ffffffffffffffffffffffffffffffffffffffff1673ffffffffffffffffffffffffffffffffffffffff163373ffffffffffffffffffffffffffffffffffffffff1614610696576040517f08c379a000000000000000000000000000000000000000000000000000000000815260040161068d90611012565b60405180910390fd5b600160149054906101000a900460ff16156106e6576040517f08c379a00000000000000000000000000000000000000000000000000000000081526004016106dd9061142a565b60405180910390fd5b600073ffffffffffffffffffffffffffffffffffffffff168173ffffffffffffffffffffffffffffffffffffffff1603610755576040517f08c379a000000000000000000000000000000000000000000000000000000000815260040161074c90611496565b60405180910390fd5b80600160006101000a81548173ffffffffffffffffffffffffffffffffffffffff021916908373ffffffffffffffffffffffffffffffffffffffff16021790555060018060146101000a81548160ff02191690831515021790555050565b60008054906101000a900473ffffffffffffffffffffffffffffffffffffffff1673ffffffffffffffffffffffffffffffffffffffff163373ffffffffffffffffffffffffffffffffffffffff1614610841576040517f08c379a000000000000000000000000000000000000000000000000000000000815260040161083890611012565b60405180910390fd5b6001600060149054906101000a900460ff16600381111561086557610864610970565b5b61086f91906114b6565b81600381111561088257610881610970565b5b146108c2576040517f08c379a00000000000000000000000000000000000000000000000000000000081526004016108b990611536565b60405180910390fd5b80600060146101000a81548160ff021916908360038111156108e7576108e6610970565b5b02179055507fa6dcc92f45df25789d5639b7a0c97ba1edf3bb1c0b5dd3376fd96a0db87c46428160405161091b91906109e7565b60405180910390a150565b600160009054906101000a900473ffffffffffffffffffffffffffffffffffffffff1681565b60008054906101000a900473ffffffffffffffffffffffffffffffffffffffff1681565b7f4e487b7100000000000000000000000000000000000000000000000000000000600052602160045260246000fd5b600481106109b0576109af610970565b5b50565b60008190506109c18261099f565b919050565b60006109d1826109b3565b9050919050565b6109e1816109c6565b82525050565b60006020820190506109fc60008301846109d8565b92915050565b6000604051905090565b600080fd5b600080fd5b6000819050919050565b610a2981610a16565b8114610a3457600080fd5b50565b600081359050610a4681610a20565b92915050565b600060208284031215610a6257610a61610a0c565b5b6000610a7084828501610a37565b91505092915050565b610a8281610a16565b82525050565b6000602082019050610a9d6000830184610a79565b92915050565b600081519050919050565b600082825260208201905092915050565b60005b83811015610add578082015181840152602081019050610ac2565b60008484015250505050565b6000601f19601f8301169050919050565b6000610b0582610aa3565b610b0f8185610aae565b9350610b1f818560208601610abf565b610b2881610ae9565b840191505092915050565b60006040820190508181036000830152610b4d8185610afa565b9050610b5c6020830184610a79565b9392505050565b600080fd5b600080fd5b7f4e487b7100000000000000000000000000000000000000000000000000000000600052604160045260246000fd5b610ba582610ae9565b810181811067ffffffffffffffff82111715610bc457610bc3610b6d565b5b80604052505050565b6000610bd7610a02565b9050610be38282610b9c565b919050565b600067ffffffffffffffff821115610c0357610c02610b6d565b5b610c0c82610ae9565b9050602081019050919050565b82818337600083830152505050565b6000610c3b610c3684610be8565b610bcd565b905082815260208101848484011115610c5757610c56610b68565b5b610c62848285610c19565b509392505050565b600082601f830112610c7f57610c7e610b63565b5b8135610c8f848260208601610c28565b91505092915050565b600060208284031215610cae57610cad610a0c565b5b600082013567ffffffffffffffff811115610ccc57610ccb610a11565b5b610cd884828501610c6a565b91505092915050565b600073ffffffffffffffffffffffffffffffffffffffff82169050919050565b6000610d0c82610ce1565b9050919050565b610d1c81610d01565b8114610d2757600080fd5b50565b600081359050610d3981610d13565b92915050565b600060208284031215610d5557610d54610a0c565b5b6000610d6384828501610d2a565b91505092915050565b60048110610d7957600080fd5b50565b600081359050610d8b81610d6c565b92915050565b600060208284031215610da757610da6610a0c565b5b6000610db584828501610d7c565b91505092915050565b610dc781610d01565b82525050565b6000602082019050610de26000830184610dbe565b92915050565b7f4f6e6c7920766f74696e6720636f6e7472616374000000000000000000000000600082015250565b6000610e1e601483610aae565b9150610e2982610de8565b602082019050919050565b60006020820190508181036000830152610e4d81610e11565b9050919050565b7f496e76616c69642063616e646964617465000000000000000000000000000000600082015250565b6000610e8a601183610aae565b9150610e9582610e54565b602082019050919050565b60006020820190508181036000830152610eb981610e7d565b9050919050565b7f4e487b7100000000000000000000000000000000000000000000000000000000600052603260045260246000fd5b7f4e487b7100000000000000000000000000000000000000000000000000000000600052601160045260246000fd5b6000610f2982610a16565b91507fffffffffffffffffffffffffffffffffffffffffffffffffffffffffffffffff8203610f5b57610f5a610eef565b5b600182019050919050565b7f4e487b7100000000000000000000000000000000000000000000000000000000600052602260045260246000fd5b60006002820490506001821680610fad57607f821691505b602082108103610fc057610fbf610f66565b5b50919050565b7f4e6f742061646d696e0000000000000000000000000000000000000000000000600082015250565b6000610ffc600983610aae565b915061100782610fc6565b602082019050919050565b6000602082019050818103600083015261102b81610fef565b9050919050565b7f4e6f7420696e2053455455502070686173650000000000000000000000000000600082015250565b6000611068601283610aae565b915061107382611032565b602082019050919050565b600060208201905081810360008301526110978161105b565b9050919050565b7f456d707479206e616d6500000000000000000000000000000000000000000000600082015250565b60006110d4600a83610aae565b91506110df8261109e565b602082019050919050565b60006020820190508181036000830152611103816110c7565b9050919050565b60008190508160005260206000209050919050565b60006020601f8301049050919050565b600082821b905092915050565b60006008830261116c7fffffffffffffffffffffffffffffffffffffffffffffffffffffffffffffffff8261112f565b611176868361112f565b95508019841693508086168417925050509392505050565b6000819050919050565b60006111b36111ae6111a984610a16565b61118e565b610a16565b9050919050565b6000819050919050565b6111cd83611198565b6111e16111d9826111ba565b84845461113c565b825550505050565b600090565b6111f66111e9565b6112018184846111c4565b505050565b5b818110156112255761121a6000826111ee565b600181019050611207565b5050565b601f82111561126a5761123b8161110a565b6112448461111f565b81016020851015611253578190505b61126761125f8561111f565b830182611206565b50505b505050565b600082821c905092915050565b600061128d6000198460080261126f565b1980831691505092915050565b60006112a6838361127c565b9150826002028217905092915050565b6112bf82610aa3565b67ffffffffffffffff8111156112d8576112d7610b6d565b5b6112e28254610f95565b6112ed828285611229565b600060209050601f831160018114611320576000841561130e578287015190505b611318858261129a565b865550611380565b601f19841661132e8661110a565b60005b8281101561135657848901518255600182019150602085019450602081019050611331565b86831015611373578489015161136f601f89168261127c565b8355505b6001600288020188555050505b505050505050565b600061139382610a16565b915061139e83610a16565b92508282039050818111156113b6576113b5610eef565b5b92915050565b600060208201905081810360008301526113d68184610afa565b905092915050565b7f566f74696e6720636f6e747261637420616c7265616479207365740000000000600082015250565b6000611414601b83610aae565b915061141f826113de565b602082019050919050565b6000602082019050818103600083015261144381611407565b9050919050565b7f5a65726f20616464726573730000000000000000000000000000000000000000600082015250565b6000611480600c83610aae565b915061148b8261144a565b602082019050919050565b600060208201905081810360008301526114af81611473565b9050919050565b60006114c182610a16565b91506114cc83610a16565b92508282019050808211156114e4576114e3610eef565b5b92915050565b7f4d75737420616476616e636520666f7277617264000000000000000000000000600082015250565b6000611520601483610aae565b915061152b826114ea565b602082019050919050565b6000602082019050818103600083015261154f81611513565b905091905056fea26469706673582212209d98af970f493f1468aae0cbe0314b0e2685afff8553fad479b637bbcf8b111c64736f6c63430008180033",
  "linkReferences": {},
  "deployedLinkReferences": {}
}