{
  "_format": "hh-sol-artifact-1",
  "contractName": "Election",
  "sourceName": "contracts/Election.sol",
  "abi": [
    {
      "inputs": [],
      "stateMutability": "nonpayable",
      "type": "constructor"
    },
    {
      "anonymous": false,
      "inputs": [
        {
          "indexed": true,
          "internalType": "uint256",
          "name": "id",
          "type": "uint256"
        },
        {
          "indexed": false,
          "internalType": "string",
          "name": "name",
          "type": "string"
        }
      ],
      "name": "CandidateAdded",
      "type": "event"
    },
    {
      "anonymous": false,
      "inputs": [
        {
          "indexed": false,
          "internalType": "enum Election.Phase",
          "name": "newPhase",
          "type": "uint8"
        }
      ],
      "name": "PhaseChanged",
      "type": "event"
    },
    {
      "inputs": [
        {
          "internalType": "string",
          "name": "name",
          "type": "string"
        }
      ],
      "name": "addCandidate",
      "outputs": [],
      "stateMutability": "nonpayable",
      "type": "function"
    },
    {
      "inputs": [],
      "name": "admin",
      "outputs": [
        {
          "internalType": "address",
          "name": "",
          "type": "address"
        }
      ],
      "stateMutability": "view",
      "type": "function"
    },
    {
      "inputs": [],
      "name": "currentPhase",
      "outputs": [
        {
          "internalType": "enum Election.Phase",
          "name": "",
          "type": "uint8"
        }
      ],
      "stateMutability": "view",
      "type": "function"
    },
    {
      "inputs": [
        {
          "internalType": "uint256",
          "name": "id",
          "type": "uint256"
        }
      ],
      "name": "getCandidate",
      "outputs": [
        {
          "internalType": "string",
          "name": "name",
          "type": "string"
        },
        {
          "internalType": "uint256",
          "name": "voteCount",
          "type": "uint256"
        }
      ],
      "stateMutability": "view",
      "type": "function"
    },
    {
      "inputs": [],
      "name": "getCandidateCount",
      "outputs": [
        {
          "internalType": "uint256",
          "name": "",
          "type": "uint256"
        }
      ],
      "stateMutability": "view",
      "type": "function"
    },
    {
      "inputs": [
        {
          "internalType": "uint256",
          "name": "id",
          "type": "uint256"
        }
      ],
      "name": "incrementVote",
      "outputs": [],
      "stateMutability": "nonpayable",
      "type": "function"
    },
    {
      "inputs": [],
      "name": "resetPhase",
      "outputs": [],
      "stateMutability": "nonpayable",
      "type": "function"
    },
    {
      "inputs": [
        {
          "internalType": "enum Election.Phase",
          "name": "newPhase",
          "type": "uint8"
        }
      ],
      "name": "setPhase",
      "outputs": [],
      "stateMutability": "nonpayable",
      "type": "function"
    },
    {
      "inputs": [
        {
          "internalType": "address",
          "name": "_votingContract",
          "type": "address"
        }
      ],
      "name": "setVotingContract",
      "outputs": [],
      "stateMutability": "nonpayable",
      "type": "function"
    },
    {
      "inputs": [],
      "name": "votingContract",
      "outputs": [
        {
          "internalType": "address",
          "name": "",
          "type": "address"
        }
      ],
      "stateMutability": "view",
      "type": "function"
    }
  ],
  "bytecode": "0x608060405234801561001057600080fd5b50336000806101000a81548173ffffffffffffffffffffffffffffffffffffffff021916908373ffffffffffffffffffffffffffffffffffffffff16021790555060008060146101000a81548160ff0219169083600381111561007657610075610080565b5b02179055506100af565b7f4e487b7100000000000000000000000000000000000000000000000000000000600052602160045260246000fd5b6116f7806100be6000396000f3fe608060405234801561001057600080fd5b506004361061009e5760003560e01c8063462e91ec11610066578063462e91ec14610136578063a069c1ac14610152578063c03afb591461016e578063c1fc006a1461018a578063f851a440146101a85761009e565b8063055ad42e146100a357806315ccb26a146100c157806330a56347146100dd57806335b8e820146100fb57806344f919f81461012c575b600080fd5b6100ab6101c6565b6040516100b89190610b2c565b60405180910390f35b6100db60048036038101906100d69190610b91565b6101d9565b005b6100e56102ee565b6040516100f29190610bcd565b60405180910390f35b61011560048036038101906101109190610b91565b6102fb565b604051610123929190610c78565b60405180910390f35b610134610426565b005b610150600480360381019061014b9190610ddd565b610518565b005b61016c60048036038101906101679190610e84565b61074d565b005b61018860048036038101906101839190610ed6565b6108f8565b005b610192610a6b565b60405161019f9190610f12565b60405180910390f35b6101b0610a91565b6040516101bd9190610f12565b60405180910390f35b600060149054906101000a900460ff1681565b600160009054906101000a900473ffffffffffffffffffffffffffffffffffffffff1673ffffffffffffffffffffffffffffffffffffffff163373ffffffffffffffffffffffffffffffffffffffff1614610269576040517f08c379a000000000000000000000000000000000000000000000000000000000815260040161026090610f79565b60405180910390fd5b60028054905081106102b0576040517f08c379a00000000000000000000000000000000000000000000000000000000081526004016102a790610fe5565b60405180910390fd5b600281815481106102c4576102c3611005565b5b906000526020600020906002020160010160008154809291906102e690611063565b919050555050565b6000600280549050905090565b606060006002805490508310610346576040517f08c379a000000000000000000000000000000000000000000000000000000000815260040161033d90610fe5565b60405180910390fd5b6002838154811061035a57610359611005565b5b90600052602060002090600202016000016002848154811061037f5761037e611005565b5b90600052602060002090600202016001015481805461039d906110da565b80601f01602080910402602001604051908101604052809291908181526020018280546103c9906110da565b80156104165780601f106103eb57610100808354040283529160200191610416565b820191906000526020600020905b8154815290600101906020018083116103f957829003601f168201915b5050505050915091509150915091565b60008054906101000a900473ffffffffffffffffffffffffffffffffffffffff1673ffffffffffffffffffffffffffffffffffffffff163373ffffffffffffffffffffffffffffffffffffffff16146104b4576040517f08c379a00000000000000000000000000000000000000000000000000000000081526004016104ab90611157565b60405180910390fd5b60008060146101000a81548160ff021916908360038111156104d9576104d8610ab5565b5b02179055507fa6dcc92f45df25789d5639b7a0c97ba1edf3bb1c0b5dd3376fd96a0db87c4642600060405161050e9190610b2c565b60405180910390a1565b60008054906101000a900473ffffffffffffffffffffffffffffffffffffffff1673ffffffffffffffffffffffffffffffffffffffff163373ffffffffffffffffffffffffffffffffffffffff16146105a6576040517f08c379a000000000000000000000000000000000000000000000000000000000815260040161059d90611157565b60405180910390fd5b600060038111156105ba576105b9610ab5565b5b600060149054906101000a900460ff1660038111156105dc576105db610ab5565b5b148061061b5750600160038111156105f7576105f6610ab5565b5b600060149054906101000a900460ff16600381111561061957610618610ab5565b5b145b61065a576040517f08c379a0000000000000000000000000000000000000000000000000000000008152600401610651906111e9565b60405180910390fd5b600081511161069e576040517f08c379a000000000000000000000000000000000000000000000000000000000815260040161069590611255565b60405180910390fd5b600260405180604001604052808381526020016000815250908060018154018082558091505060019003906000526020600020906002020160009091909190915060008201518160000190816106f49190611421565b50602082015181600101555050600160028054905061071391906114f3565b7fe83b2a43e7e82d975c8a0a6d2f045153c869e111136a34d1889ab7b598e396a3826040516107429190611527565b60405180910390a250565b60008054906101000a900473ffffffffffffffffffffffffffffffffffffffff1673ffffffffffffffffffffffffffffffffffffffff163373ffffffffffffffffffffffffffffffffffffffff16146107db576040517f08c379a00000000000000000000000000000000000000000000000000000000081526004016107d290611157565b60405180910390fd5b600160149054906101000a900460ff161561082b576040517f08c379a000000000000000000000000000000000000000000000000000000000815260040161082290611595565b60405180910390fd5b600073ffffffffffffffffffffffffffffffffffffffff168173ffffffffffffffffffffffffffffffffffffffff160361089a576040517f08c379a000000000000000000000000000000000000000000000000000000000815260040161089190611601565b60405180910390fd5b80600160006101000a81548173ffffffffffffffffffffffffffffffffffffffff021916908373ffffffffffffffffffffffffffffffffffffffff16021790555060018060146101000a81548160ff02191690831515021790555050565b60008054906101000a900473ffffffffffffffffffffffffffffffffffffffff1673ffffffffffffffffffffffffffffffffffffffff163373ffffffffffffffffffffffffffffffffffffffff1614610986576040517f08c379a000000000000000000000000000000000000000000000000000000000815260040161097d90611157565b60405180910390fd5b6001600060149054906101000a900460ff1660038111156109aa576109a9610ab5565b5b6109b49190611621565b8160038111156109c7576109c6610ab5565b5b14610a07576040517f08c379a00000000000000000000000000000000000000000000000000000000081526004016109fe906116a1565b60405180910390fd5b80600060146101000a81548160ff02191690836003811115610a2c57610a2b610ab5565b5b02179055507fa6dcc92f45df25789d5639b7a0c97ba1edf3bb1c0b5dd3376fd96a0db87c464281604051610a609190610b2c565b60405180910390a150565b600160009054906101000a900473ffffffffffffffffffffffffffffffffffffffff1681565b60008054906101000a900473ffffffffffffffffffffffffffffffffffffffff1681565b7f4e487b7100000000000000000000000000000000000000000000000000000000600052602160045260246000fd5b60048110610af557610af4610ab5565b5b50565b6000819050610b0682610ae4565b919050565b6000610b1682610af8565b9050919050565b610b2681610b0b565b82525050565b6000602082019050610b416000830184610b1d565b92915050565b6000604051905090565b600080fd5b600080fd5b6000819050919050565b610b6e81610b5b565b8114610b7957600080fd5b50565b600081359050610b8b81610b65565b92915050565b600060208284031215610ba757610ba6610b51565b5b6000610bb584828501610b7c565b91505092915050565b610bc781610b5b565b82525050565b6000602082019050610be26000830184610bbe565b92915050565b600081519050919050565b600082825260208201905092915050565b60005b83811015610c22578082015181840152602081019050610c07565b60008484015250505050565b6000601f19601f8301169050919050565b6000610c4a82610be8565b610c548185610bf3565b9350610c64818560208601610c04565b610c6d81610c2e565b840191505092915050565b60006040820190508181036000830152610c928185610c3f565b9050610ca16020830184610bbe565b9392505050565b600080fd5b600080fd5b7f4e487b7100000000000000000000000000000000000000000000000000000000600052604160045260246000fd5b610cea82610c2e565b810181811067ffffffffffffffff82111715610d0957610d08610cb2565b5b80604052505050565b6000610d1c610b47565b9050610d288282610ce1565b919050565b600067ffffffffffffffff821115610d4857610d47610cb2565b5b610d5182610c2e565b9050602081019050919050565b82818337600083830152505050565b6000610d80610d7b84610d2d565b610d12565b905082815260208101848484011115610d9c57610d9b610cad565b5b610da7848285610d5e565b509392505050565b600082601f830112610dc457610dc3610ca8565b5b8135610dd4848260208601610d6d565b91505092915050565b600060208284031215610df357610df2610b51565b5b600082013567ffffffffffffffff811115610e1157610e10610b56565b5b610e1d84828501610daf565b91505092915050565b600073ffffffffffffffffffffffffffffffffffffffff82169050919050565b6000610e5182610e26565b9050919050565b610e6181610e46565b8114610e6c57600080fd5b50565b600081359050610e7e81610e58565b92915050565b600060208284031215610e9a57610e99610b51565b5b6000610ea884828501610e6f565b91505092915050565b60048110610ebe57600080fd5b50565b600081359050610ed081610eb1565b92915050565b600060208284031215610eec57610eeb610b51565b5b6000610efa84828501610ec1565b91505092915050565b610f0c81610e46565b82525050565b6000602082019050610f276000830184610f03565b92915050565b7f4f6e6c7920766f74696e6720636f6e7472616374000000000000000000000000600082015250565b6000610f63601483610bf3565b9150610f6e82610f2d565b602082019050919050565b60006020820190508181036000830152610f9281610f56565b9050919050565b7f496e76616c69642063616e646964617465000000000000000000000000000000600082015250565b6000610fcf601183610bf3565b9150610fda82610f99565b602082019050919050565b60006020820190508181036000830152610ffe81610fc2565b9050919050565b7f4e487b7100000000000000000000000000000000000000000000000000000000600052603260045260246000fd5b7f4e487b7100000000000000000000000000000000000000000000000000000000600052601160045260246000fd5b600061106e82610b5b565b91507fffffffffffffffffffffffffffffffffffffffffffffffffffffffffffffffff82036110a05761109f611034565b5b600182019050919050565b7f4e487b7100000000000000000000000000000000000000000000000000000000600052602260045260246000fd5b600060028204905060018216806110f257607f821691505b602082108103611105576111046110ab565b5b50919050565b7f4e6f742061646d696e0000000000000000000000000000000000000000000000600082015250565b6000611141600983610bf3565b915061114c8261110b565b602082019050919050565b6000602082019050818103600083015261117081611134565b9050919050565b7f4e6f7420696e205345545550206f7220524547495354524154494f4e2070686160008201527f7365000000000000000000000000000000000000000000000000000000000000602082015250565b60006111d3602283610bf3565b91506111de82611177565b604082019050919050565b60006020820190508181036000830152611202816111c6565b9050919050565b7f456d707479206e616d6500000000000000000000000000000000000000000000600082015250565b600061123f600a83610bf3565b915061124a82611209565b602082019050919050565b6000602082019050818103600083015261126e81611232565b9050919050565b60008190508160005260206000209050919050565b60006020601f8301049050919050565b600082821b905092915050565b6000600883026112d77fffffffffffffffffffffffffffffffffffffffffffffffffffffffffffffffff8261129a565b6112e1868361129a565b95508019841693508086168417925050509392505050565b6000819050919050565b600061131e61131961131484610b5b565b6112f9565b610b5b565b9050919050565b6000819050919050565b61133883611303565b61134c61134482611325565b8484546112a7565b825550505050565b600090565b611361611354565b61136c81848461132f565b505050565b5b8181101561139057611385600082611359565b600181019050611372565b5050565b601f8211156113d5576113a681611275565b6113af8461128a565b810160208510156113be578190505b6113d26113ca8561128a565b830182611371565b50505b505050565b600082821c905092915050565b60006113f8600019846008026113da565b1980831691505092915050565b600061141183836113e7565b9150826002028217905092915050565b61142a82610be8565b67ffffffffffffffff81111561144357611442610cb2565b5b61144d82546110da565b611458828285611394565b600060209050601f83116001811461148b5760008415611479578287015190505b6114838582611405565b8655506114eb565b601f19841661149986611275565b60005b828110156114c15784890151825560018201915060208501945060208101905061149c565b868310156114de57848901516114da601f8916826113e7565b8355505b6001600288020188555050505b505050505050565b60006114fe82610b5b565b915061150983610b5b565b925082820390508181111561152157611520611034565b5b92915050565b600060208201905081810360008301526115418184610c3f565b905092915050565b7f566f74696e6720636f6e747261637420616c7265616479207365740000000000600082015250565b600061157f601b83610bf3565b915061158a82611549565b602082019050919050565b600060208201905081810360008301526115ae81611572565b9050919050565b7f5a65726f20616464726573730000000000000000000000000000000000000000600082015250565b60006115eb600c83610bf3565b91506115f6826115b5565b602082019050919050565b6000602082019050818103600083015261161a816115de565b9050919050565b600061162c82610b5b565b915061163783610b5b565b925082820190508082111561164f5761164e611034565b5b92915050565b7f4d75737420616476616e636520666f7277617264000000000000000000000000600082015250565b600061168b601483610bf3565b915061169682611655565b602082019050919050565b600060208201905081810360008301526116ba8161167e565b905091905056fea2646970667358221220fe4eab5c0d25bf3e717de55c53f791f14efe9e1ef1e9e15def4116b39029eee664736f6c63430008180033",
  "linkReferences": {},
  "deployedLinkReferences": {}
}