{
  "_format": "hh-sol-artifact-1",
  "contractName": "Voting",
  "sourceName": "contracts/Voting.sol",
  "abi": [
    {
      "inputs": [
        {
          "internalType": "address",
          "name": "electionAddr",
          "type": "address"
        },
        {
          "internalType": "address",
          "name": "registryAddr",
          "type": "address"
        }
      ],
      "stateMutability": "nonpayable",
      "type": "constructor"
    },
    {
      "anonymous": false,
      "inputs": [
        {
          "indexed": true,
          "internalType": "address",
          "name": "voter",
          "type": "address"
        },
        {
          "indexed": true,
          "internalType": "uint256",
          "name": "candidateId",
          "type": "uint256"
        }
      ],
      "name": "VoteCast",
      "type": "event"
    },
    {
      "inputs": [
        {
          "internalType": "uint256",
          "name": "candidateId",
          "type": "uint256"
        }
      ],
      "name": "castVote",
      "outputs": [],
      "stateMutability": "nonpayable",
      "type": "function"
    },
    {
      "inputs": [],
      "name": "election",
      "outputs": [
        {
          "internalType": "contract IElection",
          "name": "",
          "type": "address"
        }
      ],
      "stateMutability": "view",
      "type": "function"
    },
    {
      "inputs": [],
      "name": "getResults",
      "outputs": [
        {
          "internalType": "uint256[]",
          "name": "",
          "type": "uint256[]"
        }
      ],
      "stateMutability": "view",
      "type": "function"
    },
    {
      "inputs": [
        {
          "internalType": "address",
          "name": "",
          "type": "address"
        }
      ],
      "name": "hasVoted",
      "outputs": [
        {
          "internalType": "bool",
          "name": "",
          "type": "bool"
        }
      ],
      "stateMutability": "view",
      "type": "function"
    },
    {
      "inputs": [],
      "name": "registry",
      "outputs": [
        {
          "internalType": "contract IVoterRegistry",
          "name": "",
          "type": "address"
        }
      ],
      "stateMutability": "view",
      "type": "function"
    },
    {
      "inputs": [],
      "name": "totalVotesCast",
      "outputs": [
        {
          "internalType": "uint256",
          "name": "",
          "type": "uint256"
        }
      ],
      "stateMutability": "view",
      "type": "function"
    },
    {
      "inputs": [
        {
          "internalType": "uint256",
          "name": "",
          "type": "uint256"
        }
      ],
      "name": "voteTally",
      "outputs": [
        {
          "internalType": "uint256",
          "name": "",
          "type": "uint256"
        }
      ],
      "stateMutability": "view",
      "type": "function"
    }
  ],
  "bytecode": "0x60806040523480156200001157600080fd5b50604051620012223803806200122283398181016040528101906200003791906200020e565b600073ffffffffffffffffffffffffffffffffffffffff168273ffffffffffffffffffffffffffffffffffffffff1603620000a9576040517f08c379a0000000000000000000000000000000000000000000000000000000008152600401620000a090620002b6565b60405180910390fd5b600073ffffffffffffffffffffffffffffffffffffffff168173ffffffffffffffffffffffffffffffffffffffff16036200011b576040517f08c379a0000000000000000000000000000000000000000000000000000000008152600401620001129062000328565b60405180910390fd5b816000806101000a81548173ffffffffffffffffffffffffffffffffffffffff021916908373ffffffffffffffffffffffffffffffffffffffff16021790555080600160006101000a81548173ffffffffffffffffffffffffffffffffffffffff021916908373ffffffffffffffffffffffffffffffffffffffff16021790555050506200034a565b600080fd5b600073ffffffffffffffffffffffffffffffffffffffff82169050919050565b6000620001d682620001a9565b9050919050565b620001e881620001c9565b8114620001f457600080fd5b50565b6000815190506200020881620001dd565b92915050565b60008060408385031215620002285762000227620001a4565b5b60006200023885828601620001f7565b92505060206200024b85828601620001f7565b9150509250929050565b600082825260208201905092915050565b7f5a65726f20656c656374696f6e20616464726573730000000000000000000000600082015250565b60006200029e60158362000255565b9150620002ab8262000266565b602082019050919050565b60006020820190508181036000830152620002d1816200028f565b9050919050565b7f5a65726f20726567697374727920616464726573730000000000000000000000600082015250565b60006200031060158362000255565b91506200031d82620002d8565b602082019050919050565b60006020820190508181036000830152620003438162000301565b9050919050565b610ec8806200035a6000396000f3fe608060405234801561001057600080fd5b506004361061007d5760003560e01c80634717f97c1161005b5780634717f97c146100fe5780634b1d3ede1461011c5780637b1039991461013a5780637de418d5146101585761007d565b806309eef43e14610082578063390071c3146100b25780633eb76b9c146100e2575b600080fd5b61009c60048036038101906100979190610830565b610176565b6040516100a99190610878565b60405180910390f35b6100cc60048036038101906100c791906108c9565b610196565b6040516100d99190610905565b60405180910390f35b6100fc60048036038101906100f791906108c9565b6101ae565b005b610106610646565b60405161011391906109de565b60405180910390f35b61012461077d565b6040516101319190610a5f565b60405180910390f35b6101426107a1565b60405161014f9190610a9b565b60405180910390f35b6101606107c7565b60405161016d9190610905565b60405180910390f35b60026020528060005260406000206000915054906101000a900460ff1681565b60036020528060005260406000206000915090505481565b600260038111156101c2576101c1610ab6565b5b60008054906101000a900473ffffffffffffffffffffffffffffffffffffffff1673ffffffffffffffffffffffffffffffffffffffff1663055ad42e6040518163ffffffff1660e01b8152600401602060405180830381865afa15801561022d573d6000803e3d6000fd5b505050506040513d601f19601f820116820180604052508101906102519190610b0a565b600381111561026357610262610ab6565b5b146102a3576040517f08c379a000000000000000000000000000000000000000000000000000000000815260040161029a90610b94565b60405180910390fd5b600160009054906101000a900473ffffffffffffffffffffffffffffffffffffffff1673ffffffffffffffffffffffffffffffffffffffff1663c3c5a547336040518263ffffffff1660e01b81526004016102fe9190610bc3565b602060405180830381865afa15801561031b573d6000803e3d6000fd5b505050506040513d601f19601f8201168201806040525081019061033f9190610c0a565b61037e576040517f08c379a000000000000000000000000000000000000000000000000000000000815260040161037590610c83565b60405180910390fd5b600260003373ffffffffffffffffffffffffffffffffffffffff1673ffffffffffffffffffffffffffffffffffffffff16815260200190815260200160002060009054906101000a900460ff161561040b576040517f08c379a000000000000000000000000000000000000000000000000000000000815260040161040290610cef565b60405180910390fd5b60008054906101000a900473ffffffffffffffffffffffffffffffffffffffff1673ffffffffffffffffffffffffffffffffffffffff166330a563476040518163ffffffff1660e01b8152600401602060405180830381865afa158015610476573d6000803e3d6000fd5b505050506040513d601f19601f8201168201806040525081019061049a9190610d24565b81106104db576040517f08c379a00000000000000000000000000000000000000000000000000000000081526004016104d290610d9d565b60405180910390fd5b6001600260003373ffffffffffffffffffffffffffffffffffffffff1673ffffffffffffffffffffffffffffffffffffffff16815260200190815260200160002060006101000a81548160ff02191690831515021790555060036000828152602001908152602001600020600081548092919061055790610dec565b91905055506004600081548092919061056f90610dec565b919050555060008054906101000a900473ffffffffffffffffffffffffffffffffffffffff1673ffffffffffffffffffffffffffffffffffffffff166315ccb26a826040518263ffffffff1660e01b81526004016105cd9190610905565b600060405180830381600087803b1580156105e757600080fd5b505af11580156105fb573d6000803e3d6000fd5b50505050803373ffffffffffffffffffffffffffffffffffffffff167fa36cc2bebb74db33e9f88110a07ef56e1b31b24b4c4f51b54b1664266e29f45b60405160405180910390a350565b606060008060009054906101000a900473ffffffffffffffffffffffffffffffffffffffff1673ffffffffffffffffffffffffffffffffffffffff166330a563476040518163ffffffff1660e01b8152600401602060405180830381865afa1580156106b6573d6000803e3d6000fd5b505050506040513d601f19601f820116820180604052508101906106da9190610d24565b905060008167ffffffffffffffff8111156106f8576106f7610e34565b5b6040519080825280602002602001820160405280156107265781602001602082028036833780820191505090505b50905060005b8281101561077457600360008281526020019081526020016000205482828151811061075b5761075a610e63565b5b602002602001018181525050808060010191505061072c565b50809250505090565b60008054906101000a900473ffffffffffffffffffffffffffffffffffffffff1681565b600160009054906101000a900473ffffffffffffffffffffffffffffffffffffffff1681565b60045481565b600080fd5b600073ffffffffffffffffffffffffffffffffffffffff82169050919050565b60006107fd826107d2565b9050919050565b61080d816107f2565b811461081857600080fd5b50565b60008135905061082a81610804565b92915050565b600060208284031215610846576108456107cd565b5b60006108548482850161081b565b91505092915050565b60008115159050919050565b6108728161085d565b82525050565b600060208201905061088d6000830184610869565b92915050565b6000819050919050565b6108a681610893565b81146108b157600080fd5b50565b6000813590506108c38161089d565b92915050565b6000602082840312156108df576108de6107cd565b5b60006108ed848285016108b4565b91505092915050565b6108ff81610893565b82525050565b600060208201905061091a60008301846108f6565b92915050565b600081519050919050565b600082825260208201905092915050565b6000819050602082019050919050565b61095581610893565b82525050565b6000610967838361094c565b60208301905092915050565b6000602082019050919050565b600061098b82610920565b610995818561092b565b93506109a08361093c565b8060005b838110156109d15781516109b8888261095b565b97506109c383610973565b9250506001810190506109a4565b5085935050505092915050565b600060208201905081810360008301526109f88184610980565b905092915050565b6000819050919050565b6000610a25610a20610a1b846107d2565b610a00565b6107d2565b9050919050565b6000610a3782610a0a565b9050919050565b6000610a4982610a2c565b9050919050565b610a5981610a3e565b82525050565b6000602082019050610a746000830184610a50565b92915050565b6000610a8582610a2c565b9050919050565b610a9581610a7a565b82525050565b6000602082019050610ab06000830184610a8c565b92915050565b7f4e487b7100000000000000000000000000000000000000000000000000000000600052602160045260246000fd5b60048110610af257600080fd5b50565b600081519050610b0481610ae5565b92915050565b600060208284031215610b2057610b1f6107cd565b5b6000610b2e84828501610af5565b91505092915050565b600082825260208201905092915050565b7f4e6f7420564f54494e4720706861736500000000000000000000000000000000600082015250565b6000610b7e601083610b37565b9150610b8982610b48565b602082019050919050565b60006020820190508181036000830152610bad81610b71565b9050919050565b610bbd816107f2565b82525050565b6000602082019050610bd86000830184610bb4565b92915050565b610be78161085d565b8114610bf257600080fd5b50565b600081519050610c0481610bde565b92915050565b600060208284031215610c2057610c1f6107cd565b5b6000610c2e84828501610bf5565b91505092915050565b7f4e6f742072656769737465726564000000000000000000000000000000000000600082015250565b6000610c6d600e83610b37565b9150610c7882610c37565b602082019050919050565b60006020820190508181036000830152610c9c81610c60565b9050919050565b7f416c726561647920766f74656400000000000000000000000000000000000000600082015250565b6000610cd9600d83610b37565b9150610ce482610ca3565b602082019050919050565b60006020820190508181036000830152610d0881610ccc565b9050919050565b600081519050610d1e8161089d565b92915050565b600060208284031215610d3a57610d396107cd565b5b6000610d4884828501610d0f565b91505092915050565b7f496e76616c69642063616e646964617465000000000000000000000000000000600082015250565b6000610d87601183610b37565b9150610d9282610d51565b602082019050919050565b60006020820190508181036000830152610db681610d7a565b9050919050565b7f4e487b7100000000000000000000000000000000000000000000000000000000600052601160045260246000fd5b6000610df782610893565b91507fffffffffffffffffffffffffffffffffffffffffffffffffffffffffffffffff8203610e2957610e28610dbd565b5b600182019050919050565b7f4e487b7100000000000000000000000000000000000000000000000000000000600052604160045260246000fd5b7f4e487b7100000000000000000000000000000000000000000000000000000000600052603260045260246000fdfea264697066735822122086561818ea00dbfde2488ad968f1982f9c9de21872572c848651591f5a6c21a664736f6c63430008180033",
  "linkReferences": {},
  "deployedLinkReferences": {}
}